:020000040808EA
:1000000090B804246D03080833F2080809C40808EE
:100010002FF2080839180808BD3F09080000000041
:10002000000000000000000000000000AD02080811
:100030004D2608080000000009030808B513090848
:100040008703080887030808870308088703080848
:100050008703080887030808870308088703080838
:10006000870308088703080887030808B5200808DD
:10007000C5200808D5200808E5200808F52008084C
:10008000092108081D2108088703080887030808B4
:1000900087030808870308088703080887030808F8
:1000A00087030808870308088703080887030808E8
:1000B00087030808870308088703080887030808D8
:1000C00087030808870308088703080887030808C8
:1000D00087030808D9380908E9380908F9380908F0
:1000E0008703080887030808000000008115090835
:1000F0008703080887030808870308082D210808D4
:1001000087030808870308088703080889FA08088E
:10011000DD1A090887030808870308088703080809
:100120003D2108084D2108088703080887030808AF
:1001300087030808392C080887030808870308087C
:1001400000000000000000000000000000000000AF
:1001500087030808870308088703080899390908EE
:100160008703080887030808870308088703080827
:1001700087030808870308088703080800000000B1
:100180008703080887030808ED1A09088703080889
:1001900087030808870308088703080887030808F7
:1001A00087030808870308088703080887030808E7
:1001B00087030808870308088703080887030808D7
:1001C00087030808870308088703080887030808C7
:1001D00087030808870308088703080887030808B7
:1001E00087030808870308088703080887030808A7
:1001F0008703080887030808870308088703080897
:100200008703080887030808870308088703080886
:100210008703080887030808711509088703080879
:100220008703080887030808870308080000000000
:1002300087030808870308080000000087030808F0
:100240008703080887030808870308088703080846
:100250008703080887030808870308088703080836
:100260008703080887030808870308088703080826
:1002700087030808870308088703080800000000B0
:1002800087030808870308088703080800000000A0
:100290000000000087030808DFF80CD000F044FEDF
:1002A0000048004751B1090890B804242C4B196844
:1002B0000868B0E8F04F80F30988BFF36F8F4FF004
:1002C000000080F3118870470000000008480068B3
:1002D000006880F308884FF0000080F3148862B64D
:1002E00061B6BFF34F8FBFF36F8F00DF00BF00BF5A
:1002F00008ED00E0DFF80C00016841F470010160D6
:10030000704700BF88ED00E0EFF30980BFF36F8F07
:10031000134B1A681EF0100F08BF20ED108A20E959
:10032000F04F106009B44FF0500080F31188BFF314
:100330004F8FBFF36F8F25F0B3FA4FF0000080F3BB
:10034000118809BC19680868B0E8F04F1EF0100F5A
:1003500008BFB0EC108A80F30988BFF36F8F704735
:10036000EC000024EFF3058070470000064880474A
:1003700006480047FEE7FEE7FEE7FEE7FEE7FEE78A
:10038000FEE7FEE7FEE7FEE7C91409089902080840
:100390002DE9F05F0546002092469B4688460646BA
:1003A000814640241BE0284641464746224600F04D
:1003B000F8FA53465A46C01A914110D311461846CE
:1003C000224600F0DFFA2D1A67EB01084F4622465D
:1003D0000120002100F0D6FA17EB00094E41201E43
:1003E000A4F10104DFDC484631462A464346BDE815
:1003F000F09F000000487047DC6E0A0810B5044604
:10040000FFF7F8FF0068005D00F0010010BDA0F1EB
:100410004101192900D82030704700000649074AD9
:100420000868504343F2390210440860400870479E
:100430000149086070470000600400246D4EC64109
:1004400040EA01039B0703D009E008C9121F08C056
:10045000042AFAD203E011F8013B00F8013B521ED6
:10046000F9D27047D2B201E000F8012B491EFBD24D
:1004700070470022F6E710B513460A4604461946AF
:10048000FFF7F0FF204610BD421E12F8013F002B7F
:10049000FBD111F8013B02F8013B002BF9D1704769
:1004A00030B505462A460B4612F8010B13F8014BEE
:1004B00008B1A042F8D01CB1002802D06D1CF1E7B1
:1004C000284630BD10B5044604E00B7800F8013B27
:1004D00003B1491C521EF8D2204610BD421C10F830
:1004E000011B0029FBD1801A704710B5002200E0E3
:1004F000521C835C8C5CA34201D1002BF8D1D8B292
:10050000E1B2401A10BD30B504460020034600E0B9
:100510005B1C934203D2E05CCD5C401BF8D030BD45
:10052000034611F8012B00F8012B002AF9D11846D7
:10053000704730B505460020034600E05B1C93423F
:1005400005D2EC5CC85C201A01D1002CF6D130BD7C
:100550000FB400B58DB010A909900B9000914FF029
:10056000FF300A9000200C9005480690054807903F
:100570006A4609A80F9900F02BFA0DB05DF814FB3C
:10058000ED0908080B0A08082DE9FF4F087883B029
:100590009946FF2805D0491C2D2804D000240020AE
:1005A00008E000200BE00124F9E700EB800003EBFA
:1005B0004000491C0B78FF2BF7D104B140420023C7
:1005C0000293147819461D462D2C01D02B2C04D1F2
:1005D000521C2D2C13D000240294AA461478FF2C10
:1005E0000FD00A25A3FB057801FB05814FF0000C15
:1005F00003FB0C11521CE3194AEB0101EEE7012445
:10060000EAE7814453EA010002D019F5C87F06DA0F
:1006100003980021C0E9001107B0BDE8F08F002564
:10062000AE4E2F46DFF8B882184600F025FCCDE923
:100630000001B9F1000002DAC9F1000400E004464B
:100640000023A74A1AEB030B42EB045A12E0E0071F
:1006500007D02A4633463846414600F02CFB074671
:1006600088462A4633461046194600F024FB0546C4
:100670000E466410002CEAD1DDE90001B9F1000F4B
:100680005A46534606DA00F088FB3A46434600F0E5
:1006900084FB05E000F00FFB3A46434600F00BFBFD
:1006A000029A0AB181F00041039AC2E90001B3E75E
:1006B0002DE9FF4F1F468DB0D7E901464FF0FF38B7
:1006C0002E2045464FF000090B90B9696D1C0E981D
:1006D0008847396A824688470028F6D1BAF1FF3F39
:1006E0000AD024F4D064002E11DDBAF12B0F08D00B
:1006F000BAF12D0F0BD102E0404611B08DE744F462
:100700008064B9696D1C0E9888478246761E6946DA
:10071000600501D52D2000E02B208DF8000001F1AF
:10072000010B0DF1200809E0B9696D1C0E9888478E
:1007300082460F9844F40074761E0560002E02DD98
:10074000BAF1300FF0D00B998A453ED144F08004C5
:1007500006E00F99681CA9F1010944F400740860CF
:10076000B9696D1C761E0E98884782463028F0D0F5
:100770002BE00B998A4505D1200603D444F0800470
:10078000761E18E0504615F0D7F808B30DF11301A6
:10079000761E44F400748B4508D2AAF130000BF8A1
:1007A000010B200607D5A9F1010003E0200602D4C1
:1007B00009F101008146A00502D50F99681C086067
:1007C000B9696D1C0E9888478246002ED1DC53E033
:1007D000002E51DDBAF1650F02D0BAF1450F4BD1B1
:1007E000A00549D5B9696D1C24F44074761E0E9895
:1007F00088478246002E0CDD2B2804D0BAF12D0F3D
:1008000007D144F48074B9696D1C0E9888478246FC
:10081000761EE00501D52D2100E02B2108F8011BF3
:10082000CDF82C8021E00DF12901761E44F40074EE
:1008300088450CD2AAF1300010F0FF0088F80000C3
:1008400002D10B99884509D908F1010806E0E005B5
:1008500001D5244801E042F20F708146B9696D1C50
:100860000E98884782460F980560002E04DD50469A
:1008700015F062F80028D6D1F9690E988847FF2054
:100880008BF8000088F800000020069007904B4687
:100890006A4608A906A8FFF777FEA00502D46FF004
:1008A00001002AE714F0240F0AD0E00714D1DDE993
:1008B00006123868031D3B600068C0E900120BE0B7
:1008C000DDE9060100F014FB0146E00704D13868B9
:1008D000021D3A600068016028460EE700001440DF
:1008E0000000F03FF1D8FFFF2DE9F04791460F4699
:1008F00080460446002614F8015B2DB1FFF77AFD0F
:100900000068405DC007F6D12B2D02D02D2D18D0E8
:10091000641E4A463946204600F088F827B13968F7
:10092000A14201D1C7F8008071054FF002040BD538
:100930004042002803DD14F04FF90460A007BDE831
:10094000F08746F48066E4E70028F8DA14F044F90A
:1009500004606FF00040F2E730B50B46014600201E
:100960002022012409E021FA02F59D4205D303FA71
:1009700002F5491B04FA02F52844151EA2F10102F2
:10098000F1DC30BD202A04DB203A00FA02F100201D
:1009900070479140C2F1200320FA03F319439040BD
:1009A0007047202A04DB203A21FA02F00021704728
:1009B00021FA02F3D040C2F12002914008431946C7
:1009C00070470000026811441378016018467047B0
:1009D000D16004495161044911620021116111463D
:1009E00000F0D4BAC5090808FD030808426842B1FE
:1009F000016811F8013B23B1521EC0E900121846EC
:100A000070470121C160881E704742685AB1C368AF
:100A1000016843B983688B4205D0491E521CC0E966
:100A20000012002070474FF0FF3070472DE9F05F53
:100A300082460078002715468B460AF10104B94624
:100A4000302801D09DB113E014F8010B012778285C
:100A500003D0582801D045B10AE00DB1102D07D1BF
:100A60000027102514F8010B02E0082500E00A25F4
:100A70000026B0460EE005FB080005FB06F1012745
:100A800001EB10461FFA80F8B6F5803F00D3B94657
:100A900014F8010B294600F06BFA0028EBDABBF1E1
:100AA000000F05D00FB1641E00E05446CBF80040A3
:100AB000B9F1000F06D014F08FF802210160C81EB2
:100AC000BDE8F09F48EA0640FAE700000FB40023B3
:100AD00000B589B00CA900910B996FF00042CB6072
:100AE0001E4B06931E4B07930423CDE901321D4A8A
:100AF000089202466B460020FFF7DAFD09B05DF868
:100B000014FB70B586B006464FF0FF300091CDE97A
:100B10000101002015460C4604903246694604A89F
:100B2000FFF7D4FF02460498211825B108B1084602
:100B300000E020462860049800280DD0002A02DD3D
:100B40000098884208D0081B0094CDE90104324681
:100B5000694604A8FFF7BAFF06B070BDED090808A2
:100B60000B0A0808FD0308082DE9FE4F804681EABC
:100B70000300C00F0C46009021F0004123F0004517
:100B8000B8EB0200A94105D24046214690461C46DA
:100B90000B46024623F00040104347D0270DC7F311
:100BA0000A00C3F30A510290401A019040286BDA00
:100BB000C3F3130040F4801B0098924620B1002339
:100BC000D2EB030A63EB0B0B01985946C0F14002CC
:100BD0005046FFF7D7FE06460D4650465946019A45
:100BE00000F0B4F910EB08006141002487EA1152CB
:100BF00084EAE7731A4340D0009A62B3019A012A4B
:100C00004FEA075215DC001B61EB02014FF0004276
:100C100002EA0752CDE90042001C41F5801132463C
:100C20002B4600F08FFB03B0BDE8F08F4046214615
:100C3000F9E7001B61EB0201001C41F5801300186D
:100C40005B412018A2F5001747EB030140EAD5707D
:100C5000B6196D4111E06D084FEA360645EAC075D8
:100C60004FEA0752001B61EB0201001C41F58011A5
:100C700049084FEA30000019514132462B4603B073
:100C8000BDE8F04F00F04FBB009801224000002368
:100C9000D0EB020263EBE073009821464FEAE07468
:100CA000B8EB000061EB0401E9E783F000435BE788
:100CB00081F0004158E72DE9FE4F81EA030404F07A
:100CC000004421F0004100944FF0000B23F000435A
:100CD00050EA01045ED052EA03045BD0C3F30A5425
:100CE000C1F30A552C44A4F2F3340194A0FB02543E
:100CF000C1F3130141F48011C3F3130343F48013D0
:100D000001FB024400FB034E840A970A44EA815423
:100D100047EA8357A4FB076802958D0A05FB078500
:100D20004FEA932C04FB0C542705029D4FEA06580A
:100D300047EA1637B5EB08056EEB070C870E920EE7
:100D400047EA811742EA8312A7FB0201B6EB0B01C7
:100D500064EB00042B0D43EA0C335E1844EB1C508B
:100D6000DA465146E7FB0201C5F313044FEA0B33A1
:100D700043EA14534FEA0432019C43EA0603A4F108
:100D80000C040294009CCDE900B400F0DBFA03B03F
:100D9000BDE8F08F00200146F9E72DE9F04D81EA2A
:100DA000030404F0004B21F0004514464FF0000A04
:100DB00023F0004150EA050220D054EA01021DD080
:100DC000C5F30A570246C5F31303C1F31300C1F379
:100DD0000A5640F4801543F48013A7EB0608101B55
:100DE000D64608F2FD3873EB050002D308F101087E
:100DF00001E092185B41B8F1000F03DA00200146D0
:100E0000BDE8F08D00204FF48011064684460EE0C8
:100E1000171B73EB050705D3121B63EB0503064392
:100E20004CEA010C49084FEA300092185B4150EA45
:100E30000107EDD152EA030012D082EA040083EAEE
:100E40000501084305D0101BAB4106D20122002347
:100E500006E000224FF0004302E06FF00102531061
:100E60001AEB06004CEB085110EB0A0041EB0B01AA
:100E7000BDE8F04D00F057BA0EB540F23342029291
:100E80000022CDE90022134600F05CFA03B000BD59
:100E9000C1F30A52C1F3130140F2FF3341F4801150
:100EA0009A4202DA00200146704740F233439A42E8
:100EB000A2F2334202DC5242FFF773BDFFF762BD7C
:100EC00030B5041E71F1000404DB4FF000444042D1
:100ED00064EB0101141E73F1000405DB1C464FF0A6
:100EE0000043524263EB0403994208BF904230BD75
:100EF00001F0004330B421F0004150EA010206D075
:100F00000A0DA2F56072C1F31301002A02DC30BCA5
:100F100000207047440F44EAC104C100E01830BC0F
:100F200000EBC25000F0C8B9064C074D06E0E0687F
:100F300040F0010394E8070098471034AC42F6D320
:100F4000FFF7AEF9FC700A081C710A08202A06DBBC
:100F5000CB17203A41FA02F043EAE07306E041FA87
:100F600002F3D040C2F12002914008431946704775
:100F70003A2800D2303820F02002412A01D3A2F1D1
:100F80003700884201D34FF0FF3070472DE9F34F0F
:100F90008BB04FF0000801F10C000C464FF0010B34
:100FA00046460DF1080A01906269012101989047B7
:100FB000051E2DD0252D2CD0216A8847C0B162692D
:100FC000012101989047216A88470028F7D1411EE6
:100FD00062690198904700E0761CA1690B988847E8
:100FE000216A88470028F7D1E1690B988847DBE739
:100FF000A1690B9888470746A84201D1761CD3E720
:10100000E1690B9888477F1C02D1B8F1000F6FD0BF
:1010100046E1002762693D463946019890472A28F3
:1010200004D162690121019890470125DFF884927B
:101030006269012101989047A0F130010A290AD282
:101040004F45E5DC07EB870100EB4107303FDFD47C
:1010500045F01005ECE7E90601D46FF000476C2875
:101060000AD04C2814D0682815D06A280DD07428CE
:101070001CD07A281AD01DE062690121019890479E
:101080006C2802D045F0040514E045F002050DE09F
:1010900045F020050AE0626901210198904768281F
:1010A00002D045F0080505E045F4006562690121BC
:1010B00001989047C4E9015765283DD019DC5828AC
:1010C0007AD00CDC452837D004DC252826D04128EE
:1010D00031D131E046282FD047282CD12CE05B2895
:1010E00077D0612828D063287CD0642823D15AE0A7
:1010F000D0E06F2848D008DC66281DD067281BD0B8
:10110000692821D06E2816D127E0702845D0732891
:1011100068D0752847D078280DD14DE0A1690B988B
:101120008847054625283FF469AFE1690B98884751
:101130006D1C3FF46AAFB3E023466A466FF00100CE
:101140000B99FFF7B5FA9EE045F040006060A807F4
:1011500023464FF0000236D43EE0E8077FF447AF65
:101160002068011D21600068290501D506701BE774
:10117000290701D5068017E7A90703D5F117C0E9AC
:10118000006111E706600FE745F040006060A807C6
:1011900023464FF0080216D41EE040F60E0125EA61
:1011A0000100606016E045F040006060A80723463B
:1011B0004FF00A0207D40FE045F040006060A80736
:1011C00008D5234610226FF001000B99AFF3008081
:1011D00059E007E0234610226FF001000B99AFF3AE
:1011E000008050E04FF000094F464B46632802D084
:1011F0005B2806D040E0E80601D40120A06001276A
:101200003AE062690121019890475E2805D14FF0CC
:1012100001096269494601989047216939B900215D
:101220000A46534643F82120491C0829FADBB0B38B
:10123000216969B9C11700EBD16253110AEB83012F
:1012400022F01F02821A01200B68904003430B60BA
:1012500062690121019890475D28E8D1B9F1000F3A
:1012600009D00020514651F82020D24341F82020D7
:10127000401C0828F7DB02AB224600976FF0010004
:101280000B99AFF3008000280CDA401C08D1BBF1A9
:10129000000F05D04FF0FF300DB0BDE8F08FFFE735
:1012A0004046F9E7E90701D108F1010806444FF08B
:1012B000000B79E6CCCCCC0C0029A8BF7047401CB1
:1012C000490008BF20F00100704710B4B0FA80FC5C
:1012D00000FA0CF050EA010404BF10BC704749B199
:1012E000CCF1200421FA04F411FA0CF118BF012109
:1012F00021430843A3EB0C01CB1D4FEA00614FEAE9
:10130000102042BF002010BC704700EBC3501044B7
:101310000029A4BF10BC7047401C490008BF20F042
:10132000010010BC704710B5141E73F1000408DAF8
:10133000401C41F1000192185B411A4301D120F099
:10134000010010BD2DE9F04D92469B4611B1B1FA56
:1013500081F202E0B0FA80F220329046FFF712FBF1
:1013600004460F4640EA0A0041EA0B0153465A463A
:10137000084313D0114653EA010019D0C8F14002C6
:101380005046FFF70EFB05460E465046594642466C
:10139000FFF7F8FA084305D0012004E0204639465B
:1013A000BDE8F08D0020054346EAE0762C43374344
:1013B0000A986305E40AA0EB08000022FD0A44EA4B
:1013C00047540A3002D500200146E9E7010510190B
:1013D0006941DDE9084500196941BDE8F04DA2E722
:1013E00070B58C1810F8015B15F0070301D110F8E7
:1013F000013B2A1106D110F8012B03E010F8016B14
:1014000001F8016B5B1EF9D12B0705D40023521E96
:101410000DD401F8013BFAE710F8013BCB1A921CFE
:1014200003E013F8015B01F8015B521EF9D5A142FC
:10143000D8D3002070BD000070B504465149206823
:10144000884203D050492068884208D14F4800683C
:1014500000F4403008B1012009E0002007E04C48CA
:10146000006800F4403008B1012000E00020B8B16D
:1014700007F0D4FD05466068B0F5803F06D0B0F5B2
:10148000003F04D0B0F5403F08D105E000BF6068E0
:10149000000CB5FBF0F502E0AD0800E000BF2AE06B
:1014A0004FF4002006F0CCFC05466068C0F3110143
:1014B000F9B980140C281CD2DFE800F01B060708DD
:1014C000090A0B111315171900BF00BF00BF00BF99
:1014D00000BF6068800C4000B5FBF0F50AE02D0904
:1014E00008E06D0906E0AD0904E0ED0902E02D0A0F
:1014F00000E000BF00BF05F0C3FB41F203018842DA
:1015000010D82448854206D92068806840F480704D
:101510002168886035E02068806820F48070216848
:1015200088602EE06D081C48854206D820688068D7
:1015300020F440702168886023E0174885420BD969
:101540004000854208D82068806820F4407040F44C
:1015500080702168886014E0104885420BD94000F3
:10156000854208D82068806820F4407040F40070FC
:101570002168886005E02068806840F44070216838
:10158000886070BD00200240002102400823024014
:1015900008630258002D3101105E5F0020BCBE00C0
:1015A00070B50546AC6B606D00F0500098BB606D87
:1015B00040F4007060652068006800F00800A8B181
:1015C00020680BF07BFC10B32068C06800F400506A
:1015D000E8B9606D20F480706065606D00F4805043
:1015E000A8B9606D40F00100606510E02068C06837
:1015F00000F0030058B9606D20F480706065606D84
:1016000000F4805018B9606D40F00100606520461C
:1016100002F08AFB0CE0FFE7606D00F0100018B1EB
:10162000204602F083FB03E0E06CC16C284688474B
:1016300070BD70B50546AC6B606D40F040006065F4
:10164000A06D40F00400A065204602F06FFB70BD65
:1016500070B50446A56B284602F067FB70BD00001C
:1016600070B5044620680BF00BFC064620680BF0B2
:101670000CFC70B36EBB2068806800F00D00012880
:101680000AD120688168174A1140891C816000BF17
:1016900003202168086009E0606D40F0100060657B
:1016A000A06D40F00100A065012070BD05F0EEFACC
:1016B00005460FE005F0EAFA401B02280AD9606DE2
:1016C00040F010006065A06D40F00100A0650120B1
:1016D000EBE705E02068806800F001000028E9D110
:1016E0000020E2E7C0FFFF7F70B5044620680BF0E2
:1016F000CCFB00284CD1206880682649084048B1BE
:10170000606D40F010006065A06D40F00100A065C4
:10171000012070BD20680BF0A1FB05F0B7FA05466B
:101720001D4A2168914203D01C4A2168914201D18F
:101730001B4900E01B4908460BF098FB0646174979
:101740002068884201D1144800E02068216888425E
:1017500000D0E6B915E020680BF097FB10B92068BF
:101760000BF07CFB05F092FA401B022809D9606D52
:1017700040F010006065A06D40F00100A065012000
:10178000C7E72068006800F001000028E3D000BF30
:101790000020BEE73F000080002002400021024000
:1017A0000023024000630258F0B503460C4615467C
:1017B000002200203CE000260027995C302906DB4F
:1017C000392904DCA1F1300C0CF0FF060FE041F0E8
:1017D000200CBCF1610F09DB41F0200CBCF1660F5D
:1017E00004DCA1F1570C0CF0FF0600E0F0BD521C28
:1017F000995C302906DB392904DCA1F1300C0CF0AE
:10180000FF070FE041F0200CBCF1610F09DB41F054
:10181000200CBCF1660F04DCA1F1570C0CF0FF07A3
:1018200000E0E3E7521C47EA061C04F800C0401C35
:10183000AA42C0DB00BFD9E700BFFEE786B00020A8
:101840000490059000900190029003901E22FD49A3
:10185000FD480AF033FA1020FB4909680862FA488B
:101860000068006840F01000F7490968086000BF90
:101870000A201CF0A4F84FF0FF31F448006824F06F
:1018800033FDF04800785A287ED1EE484078A528EC
:10189000FAD1EC48C07883284AD1EA480079182860
:1018A00018D1E8484079202814D12121E848FEF7D2
:1018B000E0FD07200BE0E349095CFF2900D108E0C7
:1018C000E0490B5CC21FE2498B54411CC8B221287D
:1018D000F1D300BFDB48007918281AD1D9484079E4
:1018E000302816D12121DA482130FEF7C2FD072029
:1018F0000CE0D449095CFF2900D109E0D1490B5C17
:10190000C21FD34921318B54411CC8B22128F0D3C6
:1019100000BFCC48007919280AD1CA48407910285C
:1019200006D1002108460EF0E7FC32201CF047F8F3
:10193000C44880780628A7D1C248007A052876D006
:1019400006DC01280BD0022844D0032870D172E0B5
:1019500006286ED00A286DD05028F7D176E2BD480F
:10196000407A012835D00120BA498871487208466A
:10197000C07903280CD11EF07BFFC8201CF01FF893
:1019800004201EF089FB00E073E201201EF018FB2A
:10199000C8201CF014F801201EF046FBAD48C079A9
:1019A00001280FD1C8201CF00AF803201EF074FB98
:1019B00001201EF05DFFC8201CF001F80120A6499F
:1019C000087051E20020A54908600120A14981F872
:1019D000F80649E29F48407A012827D103209D4913
:1019E00088710220487204201EF042FF14201BF070
:1019F000E6FF00201EF018FBC8201BF0E0FF0520CA
:101A00001EF04AFB00201EF0DBFA9248C079012844
:101A100005D10020904908700120914908700020EC
:101A20008E49086001208B4981F8F8061CE294E099
:101A300019E25CE101E28BA2C82164200EF082FA77
:101A4000022084498871032048720020864908607A
:101A500000218648B0F8EC0700EB400202EBC00220
:101A60007C480C3000EBC20041708048A0F8EC17B5
:101A700004201EF0FDFE0122D1027D4805F0FAF897
:101A800000217A4880F8D817002005F0E3FD0022F5
:101A90000221784805F0EEF801220421754805F08E
:101AA000E9F800206B49C8710846C0790872032024
:101AB000487214201BF083FF01201EF0EDFA642011
:101AC0001BF07DFF00216948A0F8EE170146B1F830
:101AD000EE0700F005FA64201BF071FF00221146AA
:101AE00010461EF0B5FC64201BF069FF00200EF0CC
:101AF000B5FA64201BF063FF68461EF069FD6420A0
:101B00001BF05DFF082104A81EF020FD64201BF0DF
:101B100056FF00201EF0E6FC64201BF050FF002062
:101B20001EF08EFD64201BF04AFF00201EF07CFAA0
:101B300064201BF044FF03200EF08AF964201BF0A0
:101B40003EFF1EF009FC00201EF03AFA0020424938
:101B50000870494809F022F986E14448B0F8EC07DA
:101B600000EB400101EBC0013A480C3000EBC10032
:101B700040783C2865DC3D48B0F8EC0700EB4001BC
:101B800001EBC00133480C3000EBC1004078401C31
:101B9000C1B23648B0F8EC0700EB400202EBC002DD
:101BA0002C480C3000EBC20041703048B0F8EC0714
:101BB00000EB400101EBC00126480C3000EBC100F6
:101BC00040883C2190FBF1F084B2284AB2F8EC271F
:101BD00002EB420303EBC2031E4A0C3202EBC302C8
:101BE0005178224AB2F8EC2702EB420303EBC2031E
:101BF000184A0C3202EBC302128A90B222461EF03F
:101C000027FC64201BF0DBFE1848B0F8EC0700EB63
:101C1000400101EBC0010F480C3000EBC1004078DF
:101C20003C2838DC1149B1F8EC1701EB410202EB1A
:101C3000C10208490C3101EBC201497800EE101ACB
:101C40001CE044E09112002410190024000000243C
:101C5000CC250224782602241C00002458000024ED
:101C60006A0000244F4B0000200000247846022424
:101C700000180258000C0258CC210024B8EE400B8A
:101C80009FED811B20EE010BBCEEC00B10EE101A75
:101C900088B20EF0E3F97E49B1F8EC1701EB41028E
:101CA00002EBC1027B4901EBC201087B7A4912F0C9
:101CB000D9FA7749B1F8EC1701EB410202EBC10206
:101CC000744901EBC2014878734900F083FC01209C
:101CD00000F096FC4FF4FA701BF071FE00206F4983
:101CE000086001206B490C3981F8F806BCE06848AF
:101CF000B0F8EC0700EB400101EBC001654800EBD8
:101D0000C100407805287CDB6148B0F8EC0700EBA7
:101D1000400101EBC0015F4800EBC1004078401E6C
:101D2000C1B25B48B0F8EC0700EB400202EBC00226
:101D3000584800EBC20041705548B0F8EC0700EB82
:101D4000400101EBC001534800EBC10040883C2139
:101D500090FBF1F084B24E4AB2F8EC2702EB42035A
:101D600003EBC2034B4A02EBC3025178484AB2F874
:101D7000EC2702EB420303EBC203464A02EBC30229
:101D8000128A90B222461EF063FB64201BF017FEFD
:101D90003F48B0F8EC0700EB400101EBC0013D48C3
:101DA00000EBC10040783C2819DC3949B1F8EC1748
:101DB00001EB410202EBC102364901EBC201497855
:101DC00000EE101AB8EE400B9FED2F1B20EE010B1A
:101DD000BCEEC00B10EE101A88B20EF03FF92C4981
:101DE000B1F8EC1701EB410202EBC102294901EB0A
:101DF000C201087B284912F035FA2549B1F8EC17E1
:101E000000E00AE001EB410202EBC102214901EBD3
:101E1000C2014878204900F0DDFB012000F0F0FB12
:101E20004FF4FA701BF0CBFD00201C490860012024
:101E300018490C3981F8F80616E0154890F806089C
:101E4000401CC1B2124880F806180DE0012110486C
:101E500080F8EA170DF0FCFE11A012F045FE0020FC
:101E60001EF03EFA00E000BF00BF1E211148FEF741
:101E700000FB1E210F48FEF7FCFA1E220D490E48FA
:101E800009F01CFFF4E400005C8FC2F5285C1740E9
:101E90007846022484260224FC1E002458000024D4
:101EA000776966695F676F5F746F5F636F6E0D0A56
:101EB00000000000911200241019002410B5032224
:101EC0000021012023F0BDFE044908600846006897
:101ED00008B9002010BD0120FCE70000000000242C
:101EE0002DE9F04104464FF4616094FBF0F594FB5A
:101EF000F0F100FB11403C2190FBF1F64FF46160E2
:101F000094FBF0F100FB11403C2190FBF1F201FB4E
:101F10001207FAB2F1B2E8B21EF070F9BDE8F08132
:101F200010B50446002013490860211211480268C8
:101F30000068401C0F4B18600F4881541846026817
:101F40000068401C18600C48845418460068B0F5BE
:101F5000805F00D910BD0748008882B24FF6FF733A
:101F60000549064808F086FA08B101F02DFA00BFCD
:101F7000F0E700008C020024906702245C16002425
:101F80002DE9F84306460F46904600204249086076
:101F9000002512E036F81540210A3F480268006823
:101FA000401C3D4B18603D4881541846026800684B
:101FB000401C1860394884546D1CBD42EAD30CF0B3
:101FC000B5FC00BF3648006840F0020034490860A4
:101FD0000846006800F00200009000BF00BF3148D2
:101FE000314908603E20486040212F48816000212F
:101FF000C1604FF4806101610021416181614FF452
:102000008071C1610021016241628162C16201632C
:1020100002F088FC28B1244802F034FB08B101F03A
:10202000D3F9214803F040FB08B101F0CDF900BF1E
:102030001D481E49886708461B49886300BF002267
:102040001146392005F090FA392005F05BFA00229C
:102050000621332005F088FA332005F053FA0120D9
:1020600013494872400448600220C8600720086095
:10207000012008720C4802F0FBF840460CF0BEFC50
:102080000548008882B20549084808F04DFD08B1AE
:1020900001F09AF9BDE8F8838C02002490670224CD
:1020A000D844025828040240FC1D00245C16002479
:1020B0008067022410B5024802F07AFD10BD0000CE
:1020C000B41A002410B5024802F072FD10BD0000E1
:1020D0002C1B002410B5024802F06AFD10BD000060
:1020E000A41B002410B5024802F062FD10BD0000E0
:1020F0000C1D002410B5034802F05AFD01F0E4F96C
:1021000010BD00001413002410B5034802F050FD68
:1021100001F014FA10BD0000F013002410B50248BD
:1021200002F046FD10BD00001C1C002410B5024842
:1021300002F03EFD10BD0000941C002410B50248C2
:1021400002F036FD10BD0000841D002410B50248C9
:1021500002F02EFD10BD0000FC1D00240146374A90
:102160000868904249D0354A18320868904244D0F5
:10217000324A3032086890423FD0304A48320868CC
:1021800090423AD02D4A60320868904235D02B4AAE
:1021900078320868904230D0284A903208689042DD
:1021A0002BD0264AA8320868904226D0244A0868D4
:1021B000904222D0224A1832086890421DD0204A0C
:1021C00030320868904218D01D4A48320868904260
:1021D00013D01B4A6032086890420ED0184A7832F9
:1021E0000868904209D0164A90320868904204D09C
:1021F000134AA8320868904201D1012000E0002073
:10220000B0B10A78103A1823B2FBF3F000F00702DD
:102210000C4B9A5CCA65032805D90A686FF309025A
:10222000121D8A6503E00A686FF309028A6503E0FC
:10223000086820F0FF008865886D70471000024034
:1022400010040240086C0A0810B502682B4C0368A1
:10225000A34222D0294C14340368A3421DD0274C3A
:1022600028340368A34218D0244C3C340368A342AA
:1022700013D0224C50340368A3420ED01F4C643458
:102280000368A34209D01D4C78340368A34204D0EC
:102290001A4C8C340368A34201D1012300E00023CF
:1022A0008BB10378083B1424B3FBF4F1144B03EB1C
:1022B00081030366124B8033436601F01F04012340
:1022C000A340836618E00378103B1824B3FBF4F1B5
:1022D0000C4B9A4204D80B4BA83B9A4200D30831CE
:1022E000094B03EB81030366074B8033436601F020
:1022F0001F040123A340836610BD00000854025848
:1023000000580258B8040240000802400179A9B3FD
:10231000082940D8204B02689A4222D01E4B143321
:1023200002689A421DD01C4B283302689A4218D08A
:10233000194B3C3302689A4213D0174B5033026852
:102340009A420ED0144B643302689A4209D0124B61
:10235000783302689A4204D00F4B8C3302689A4259
:1023600001D1012200E000224AB14A1E0B4B03EBCF
:102370008202C266094A4032026708E00BE04A1E48
:10238000074B03EB8202C266054A403202674A1ECF
:10239000012393404367704708540258005902587C
:1023A00000090240014600208A69D2B98A6A32B126
:1023B000012A0DD0022A03D0032A10D10EE000BF5B
:1023C000CA6A02F08072B2F1807F00D1012007E07A
:1023D000CA6AB2F1C07F00D1012001E000E000BF75
:1023E00036E08A69B2F5005F1BD18A6A32B1012AF0
:1023F00007D0022A03D0032A11D10AE000BF01202E
:102400000EE0CA6A02F08072B2F1807F00D1012032
:1024100006E0CA6AB2F1C07F00D1012000E000BF2F
:1024200016E08A6A32B1012A05D0022A04D0032AB2
:102430000CD103E000BF00BF012008E0CA6A02F02F
:102440008072B2F1807F00D1012000E000BF00BFA8
:1024500070470000F0B5846D856DD0E919767E6017
:10246000C66E16B1D0E91C767E60574F0668BE4234
:1024700049D0554F18370668BE4244D0524F3037C6
:102480000668BE423FD0504F48370668BE423AD039
:102490004D4F60370668BE4235D04B4F78370668DF
:1024A000BE4230D0484F90370668BE422BD0464FD0
:1024B000A8370668BE4226D0444F0668BE4222D0E6
:1024C000424F18370668BE421DD0404F303706686D
:1024D000BE4218D03D4F48370668BE4213D03B4F2E
:1024E00060370668BE420ED0384F78370668BE4265
:1024F00009D0364F90370668BE4204D0334FA83714
:102500000668BE4201D1012600E00026DEB190F847
:102510005C6006F01F073F26BE40A660066836686E
:1025200026F4802607683E60066873608668402E41
:1025300004D10668B2600668F16044E00668B160E4
:102540000668F2603FE0224F0668BE4222D0204F6C
:1025500014370668BE421DD01D4F28370668BE429C
:1025600018D01B4F3C370668BE4213D0184F503767
:102570000668BE420ED0164F64370668BE4209D0C8
:10258000134F78370668BE4204D0114F8C37066867
:10259000BE4201D1012600E00026A6B190F85C60A1
:1025A00006F01F070126BE406E60066873608668ED
:1025B000402E04D10668B2600668F16003E0066848
:1025C000B1600668F260F0BD1000024010040240E5
:1025D0000854025830B5024600200EE031F81030A1
:1025E000A3F5FE44FF3C5443FF2594FBF5F447F666
:1025F000FF75631921F81030401C6428EEDB30BDF4
:1026000010B504460D48C079032816D11CB90C48F2
:1026100008F0C4FB11E0012C0FD10A48B0F8EC0718
:1026200000EB400101EBC00104480C3000EBC1009D
:10263000642102690448FFF7A3FC10BD7826022438
:10264000CC21002478460224FC1E002470470000A0
:10265000CEB000250120FB490870342127A8FDF7E2
:1026600008FF342141A8FDF704FF342134A8FDF709
:1026700000FF4FF40062F449F44809F01FFB1020FA
:10268000F24909680862F1480068006840F01000EB
:10269000EE490968086000208DF88E008DF88C00E6
:1026A0008DF88D0025902690802103A8FDF7E1FE8E
:1026B000C7E114201BF083F9E54890F8FB060028D9
:1026C0007ED1E34890F8FC060328F9D1E04890F861
:1026D000F0060028F4D10120DD4981F8F00623F04E
:1026E00025F94FF4FA601BF06AF9DA480090A0F57A
:1026F000827000F1D403D8A1026841A812F004FA54
:10270000DD48DEA1026834A812F0FEF9DA48B0F81C
:102710003401D94991F82010D74AD27FCDE9002160
:102720000290D548837F427FDFA127A812F0ECF901
:1027300004201DF0E5FC64201BF041F901201DF090
:102740009BFD0320C24981F8F10664201BF037F994
:102750000F22DD49BD4809F0BDFDC8201BF02FF94F
:102760000522DA49B94809F0B5FDC8201BF027F960
:102770000B22D749B54809F0ADFDC8201BF01FF961
:102780000922D449B14809F0A5FDC8201BF017F96A
:102790000B22D149AD4809F09DFDC8201BF00FF96F
:1027A0000D22CE49A94809F095FD4FF4FA701BF0AF
:1027B00006F90C22CA49A54809F08CFDC82000E0A2
:1027C00045E01BF0FCF80D22C649A04809F082FD47
:1027D000C8201BF0F4F81E22C3499C4809F07AFD7A
:1027E000C8201BF0ECF8322227A9984809F072FDA6
:1027F0004FF47A701BF0E3F8322241A9934809F0B4
:1028000069FD4FF47A701BF0DAF8322234A98F4850
:1028100009F060FD64201BF0D2F84FF400628A4991
:102820008A4809F04BFA1222B049884809F052FD53
:1028300064201BF0C4F8AEA012F056F90020B04995
:1028400008600120824981F8F80681F8FB06681CBF
:10285000C5B2C82D12DD7E4890F8F00601280DD1D2
:1028600064B90025A148FDF739FE86B232469F497A
:10287000764809F02FFDC8201BF0A1F8744890F8A5
:10288000FB06012874D1724890F8F0060128F9D1AE
:102890006F4890F8F1060328F4D19A4890F8E707BA
:1028A00001282CD10021974880F8E7179648FDF7BA
:1028B00015FE269094482590654890F8F00601286A
:1028C0001DD1924A92A103A8269B12F01DF90A205D
:1028D0001BF075F803A8FDF701FE86B2324603A986
:1028E0005A4809F0F7FC32201BF069F8269882B2AA
:1028F0005648259909F0EEFC0A201BF060F88CA1DF
:102900005148FDF7CDFD041E0FD00A201BF057F8EB
:1029100088A12046FDF7C4FD40B189A012F0E4F87B
:1029200040F601014848FDF7A4FD84E088A1204657
:10293000FDF7B6FD40B187A012F0D6F840F60101D0
:102940004148FDF796FD76E08548046085480460BF
:1029500010E077A182480068401CFDF7A1FD804986
:10296000086030B180480078401C7F49087001E061
:1029700067E000E0EDE700BF00207C4908704EE012
:102980007BA178480068401CFDF78AFD7549086006
:10299000F0B3764800787449097888423AD100202B
:1029A0007149087073A012F09FF800202849C1F8FF
:1029B000F406012081F8F0060421204618F05AFFA1
:1029C00040F601012048FDF754FD214890F8F20639
:1029D000012813D100201E4981F8F206032014F0CB
:1029E00009FF64201AF0EBFF1A48B030FDF776FDBE
:1029F000C6B231461748B0301DF0B6FB05201DF0B9
:102A00007FFB64201AF0DBFF00201DF035FC01E0A5
:102A1000FFE70AE055480078401C544908705348C5
:102A20000078514909788842AADD00BF00204E494C
:102A300008704E4908704FF400620349034809F0DA
:102A40003DF936E628000024900A0024281A0024C4
:102A5000782602246425022441542B514D54434FBF
:102A60004E4E3D302C222564222C222573222C220E
:102A70002573220D0A0000006024022441542B51CA
:102A80004D545355423D302C312C22636F6D6D6196
:102A90006E642F7265706C792F4A4C592F25642211
:102AA0002C300D0A0000000041542B514D544F5062
:102AB000454E3D302C2225642E25642E25642E257E
:102AC00064222C25640D0A00C2020024D1020024D5
:102AD000D6020024E1020024EA020024F5020024C8
:102AE000020300240E0300241B03002437040024E7
:102AF00034672D776F726B696E670D0A00000000F6
:102B000058000024784602241C5302246C2202241C
:102B100041542B514D5450554245583D302C302C8A
:102B2000302C302C222573222C25640D0A00000045
:102B30007B0000004865617274426167000000001C
:102B400048656172744261675F34670D0A00000076
:102B500041434B0041434B5F34670D0A00000000C6
:102B6000B8020024BC020024C0020024C1020024D8
:102B70007D000000BDE2CEF6B3C9B9A65F34670D93
:102B80000A00000010B5002210E002EB42040369C5
:102B900003EBC40100230B604B608B60CB600B61C7
:102BA0004B6100F12C0343F82210521C042AECD391
:102BB0000024C46304644464C46484640324036818
:102BC00003F58053C3F83041036803F5805304696B
:102BD000C3F81C41036903F5D863046804F5805405
:102BE000C4F8283110BD10B500220EE002EB4204FB
:102BF000C36803EBC40100230B604B608B60CB60A8
:102C000000F1180343F82210521C042AEED30024CA
:102C100084620324036803F58053C3F82C410368DE
:102C200003F58053C468C3F81441036803F5805367
:102C3000C468C3F8204110BD10B5024803F036FA4D
:102C400010BD0000FC1F002410B5A2B004460120F6
:102C50008DF83300002012908DF841008DF843006C
:102C600001208DF828008DF856008DF832000020E4
:102C70008DF84C0001208DF8840040030F90002057
:102C80008DF85C0018908DF885008DF886004FF463
:102C9000C360169000208DF830000B9001208DF855
:102CA000350000208DF836008DF840001D901B90F7
:102CB00014908DF864008DF87A0001208DF84200A0
:102CC0002020209001208DF8440000208DF8550030
:102CD0004FF0405009904FF480400E9000208DF846
:102CE000310002201F9000208DF878008DF87900C7
:102CF0008DF8540001208DF8340000201A90012036
:102D00008DF8700009A9204600F094FA01208DF892
:102D100004000290002000908DF81C008DF80D003A
:102D20008DF80C004FF40010069000208DF8140070
:102D30004FF40010049000208DF81D004FF4067031
:102D400008906946204600F017FA22B010BD000036
:102D500070B506463068D0F8004224F4706406F07E
:102D60005DF905461348854205D31348854202D2D2
:102D700044F400741AE01048854205D30F48854298
:102D800002D244F4407411E00C48854203D30C484D
:102D9000854200D20AE00A48854205D309488542A7
:102DA00002D244F4807401E044F480643068C0F8D6
:102DB000004270BD002D3101C00E16020087930342
:102DC00000E1F50580D1F0080020704710B503F050
:102DD0005DFF10BD10B5024803F06CFC002010BD73
:102DE000FC1F002470B504460D46164633462A469D
:102DF0002146044803F005FC10B14FF0FF3070BDD0
:102E00000020FCE7FC1F002470B504460D46164662
:102E100033462A462146044803F024FD10B14FF002
:102E2000FF3070BD0020FCE7FC1F00242DE9F047B7
:102E300006460B46914606F118052A69D5F810C0DA
:102E4000002755F822109C68C86800F00040B0F1D7
:102E5000004F02D10220BDE8F087187800F004008E
:102E6000C8B3C8686FF30F00D3F824A040EA0A0083
:102E7000C860C86840F48030C8603068006E40F4B4
:102E80008010D6F800A0CAF86000187800F008009A
:102E900008B3B3F82CA088686AF31F408860C8683C
:102EA00040F40030C860C86820F44020D3F830A057
:102EB00040EA0A00C8603068406E40F48010D6F8DE
:102EC00000A0CAF864003068006D40F08060D6F859
:102ED00000A0CAF85000187800F0100058B18868B7
:102EE0006FF30D00D3F818A040EA0A008860C868A4
:102EF00040F08060C860187800F0040018B91878B5
:102F000000F01000F0B1C86840F08040C860C868A8
:102F100040F00040C86000BF521C042A00D3121FBA
:102F200000BF55F822107F1CC86800F00040B0F1C7
:102F3000004F07D155F82C10C86820F00040C86039
:102F4000022088E77F1C2068086088686FF30D0006
:102F5000D4F804A040EA0A008860A06868B1A468B8
:102F6000206848608868DFF80CA200EA0A00B4F81C
:102F700004A040EA0A40886007E0002048608868B2
:102F8000DFF8F0A100EA0A008860187800F010006D
:102F9000A0B1C86820F4F000B3F820A040EACA400D
:102FA000C860C8686FF31100D3F81CA040EA0A009B
:102FB000C860C86840F48020C8601FE0C8686FF32C
:102FC0000E00D3F804A040EA0A00C860187800F0A8
:102FD000010038B1C86820F44030D3F814A040EAAA
:102FE0000A00C860187800F0200038B1C86820F0E6
:102FF0004060D3F810A040EA0A00C860187800F0DA
:10300000040038B1886820F44040D3F828A040EA92
:103010000A008860C86840F00050C860C86820F0A6
:103020008040C860C86840F00040C860187800F070
:10303000020038B1C86820F06070D3F80CA040EAF4
:103040000A00C8607EE0C86820F08050C86000BFF9
:10305000521C042A00D3121F00BF55F82210C86862
:1030600020F00050C860C86800F00040B0F1004F88
:1030700017D1624655F822104FF000080DE0C868DD
:1030800020F00040C86000BF521C042A00D3121F69
:1030900000BF55F8221008F10108B845EFD302200F
:1030A000D9E67F1CA4682068086088686FF30D006B
:1030B000D4F804A040EA0A008860A06868B1A46857
:1030C000206848608868DFF8ACA000EA0A00B4F81D
:1030D00004A040EA0A40886007E000204860886851
:1030E000DFF890A000EA0A008860187800F010006D
:1030F00060B1C8686FF31100D3F81CA040EA0A0061
:10310000C860C86840F48020C86013E0C8686FF3E6
:103110000E00D3F804A040EA0A00C860187800F056
:10312000010038B1C86820F44030D3F814A040EA58
:103130000A00C860C86840F00040C860C86820F055
:103140008040C860A06800287FF47DAFB9F1000F0F
:1031500004D0886840F00040886003E0886820F070
:1031600000408860C86840F08050C8602A61002034
:1031700071E60000FFFF00C010B5036803F580533F
:103180001B6847F60204A3430C682343046804F554
:10319000805423600C798B6843EA04330C7B43EA48
:1031A000C432036803F580535B684DF20104A34306
:1031B0001343046804F5805463604C7B0B6A43EA54
:1031C0000442036803F58053D3F80031164C2340C2
:1031D0001343046804F58054C4F800310C7D0B6976
:1031E00043EA04134C7F43EA0432036803F5805337
:1031F000D3F804310D4C23401343046804F5805484
:10320000C4F804310C7F8B6943EAC472036803F588
:103210008053D3F80831064C23401343046804F567
:103220008054C4F8083110BD00C0FEFFEFEFC0FFAE
:10323000FFFFC07F10B50C688B6823430C7943EA0D
:10324000C4630C7B43EAC4534C7B43EA84538C7BBA
:1032500043EA4453CC7B43EA04530C7C0CB901246D
:1032600000E0002443EAC4434C7C0CB9012400E094
:10327000002443EA44438C7C43EA04434C692343DF
:103280008C6923430C7F43EA04334C7F43EAC42315
:103290008C7F0CB9012400E0002443EA8423CC7F16
:1032A00043EA442391F820400CB9012400E00024B3
:1032B00043EA042351F8244F23430C7943EA0413CF
:1032C0008C6843EA040203681B683D4C23401343A7
:1032D000046823600B7E5B060C7D43EA04630C7B71
:1032E00043EA84434C7B43EA44438C7B24390CB946
:1032F000012400E0002443EA04434C6B43EA040247
:1033000003685B682F4C234013430468636091F8A3
:1033100040404B6C43EA04220368DB6840F20F1420
:10332000A34313430468E36091F854400B6D43EAF0
:10333000440391F84C400CB9012400E0002443EA16
:10334000C41331F8484F43EA044203681B6F4FF639
:103350000D7423401343046823678B7B4C7B43EA43
:1033600044020368D3F8903023F003031343046846
:10337000C4F890300368D3F8003D23F072030C6961
:1033800023430468C4F8003D0C7E4B6948390CB9EE
:10339000012400E0002443EA841391F8614043EAE9
:1033A000041391F8624043EAC4020368D3F8303D45
:1033B00023F07B0313430468C4F8303D10BD0000C4
:1033C000838004000080F8C070472DE9F0438BB083
:1033D00006460025A9460027A84600200290039033
:1033E000314606A8FDF79CF800BF29E0002507E05C
:1033F000484609F1010906A9085C05A948556D1C54
:10340000022DF5DB102204A905A8FDF76DFA04468C
:103410006CB90927082102A81DF098F80A201AF0B3
:10342000CEFA08F0FF0168461DF090F807E0E2B21E
:10343000404608F101080DF80020002005907F1C8F
:10344000092FD3DB0BB0BDE8F0832DE9F0438BB03F
:103450000646002700244FF00208A146314606A880
:10346000FDF75EF800BF19E0002407E0404608F1D0
:10347000010806A9085C03A90855641C022CF5DBA9
:103480000A2202A903A8FDF72FFA0546484609F1CA
:10349000010904A90D54002003907F1C062FE3DBD3
:1034A0009DF815009DF81410CDE900109DF813301B
:1034B0009DF812209DF811109DF810001CF07EFF61
:1034C0000BB0BDE8F083000030B58FB0002426E0DB
:1034D000002506E02819144931F810002DF81500D0
:1034E0006D1C1E2DF6DB1E21684600F047F80F49C3
:1034F00081F8EC061E21684600F040F80C4921F8DE
:103500001400084630F814000A49098848434FF669
:10351000FF7190FBF1F0084921F81400641C012CA4
:10352000D6DB01200FB030BD741E002478260224A3
:1035300062000024600000246400002430B58FB0D5
:10354000002512E0002406E060190A4931F8100055
:103550002DF81400641C1E2CF6DB1E21684600F0BA
:103560000DF8054921F815006D1C012DEADB01203D
:103570000FB030BDB01E002466000024F0B5024636
:103580000B46002100240025114E002014E032F8E3
:10359000107087B132F81070AF4201D932F8105074
:1035A00032F81070B74201D232F8106032F8107061
:1035B0003C444F1CB9B2401C9842E8DB09B90020DA
:1035C000F0BD601B871B881EB7FBF0F080B2F7E7E9
:1035D000FFC99A3BF8B504460D46164600200090F8
:1035E00000BF94F85000012801D10220F8BD01204D
:1035F00084F8500000BF2046FEF732F80746A7BB0C
:10360000606D20F4885040F002006065206805F489
:10361000803141F0004106F0804211438268194B2D
:103620001A401143816000BF13E00098401C0090D5
:103630001549009888420CD3606D20F0020040F0DC
:103640001000606500BF002084F8500000BF01201A
:10365000CCE720688168C90F0029E6D1606D20F0B1
:10366000020040F00100606504E0FFE7606D40F09B
:103670001000606500BF002084F8500000BF38468D
:10368000B4E70000C0FFFE3F00F8C3252DE9F0437A
:1036900099B004460E464FF00008306800B100BFF4
:1036A00000BF94F85000012803D1022019B0BDE8F2
:1036B000F083012084F8500000BF47492068884209
:1036C00002D14648009001E000200090009850B9D7
:1036D000606D40F02000606500BF002084F850005D
:1036E00000BF0120E2E7009809F0E3FB07462068ED
:1036F00009F0DFFB002861D1002F5FD13649206837
:10370000884203D035492068884201D1344800E01E
:1037100034480546306858B3A86820F440407168C2
:103720000843A8602C492068884203D02B492068B0
:10373000884201D12A4800E02A482949884209D113
:10374000254809F0A7FB8146244809F0A3FB49EA74
:10375000000002E0244809F09DFB70BBB1683068AE
:103760000843A96840F61F7291430843A8602BE004
:10377000A86820F44040A86017492068884203D018
:1037800016492068884201D1154800E015481449BF
:10379000884209D1104809F07DFB81460F4809F0A5
:1037A00079FB49EA000002E00F4809F073FB20B9F9
:1037B000A86840F61F718843A86005E0606D40F07E
:1037C000200060654FF0010800BF002084F8500021
:1037D00000BF40466AE7000000200240002102408E
:1037E0000023024000630258006002582DE9F84FA0
:1037F00004460D464FF0000A0020009094F838006F
:10380000012800D100E000BFF749E868884200D0F5
:103810000EE0F6492068884200D100BFF4492068D4
:10382000884200D100BFF3492068884200D100BF20
:1038300000BF94F85000012802D10220BDE8F88FA3
:10384000012084F8500000BF206809F02DFB0028FB
:103850007ED12068C1692868C0F3130018B92868B0
:10386000C0F3846004E0286890FAA0F0B0FA80F019
:1038700000F01F020120904001432068C1612168CF
:10388000D5E9002001F1300CC0F3012B0CEB8B03C8
:10389000D3F800C000F01F0E4FF01F0B0BFA0EFB09
:1038A0002CEA0B0C00F01F0BC2F3846E0EFA0BFE19
:1038B0004CEA0E0CC3F800C000BF206809F0F4FA0F
:1038C0008146206809F0D7FA8046B9F1000F6FD120
:1038D000B8F1000FFBD1AA682968206809F000FB45
:1038E000C548006800F07040B0F1805F07D168699A
:1038F0002168C968C1F382014900884014E020684A
:10390000C06800F0100038B968692168C968C1F35F
:1039100082014900884007E068692168C96801F0B0
:10392000100189084900884007462869042840D0CA
:1039300020682A68296900F1600C0CEB8103D3F838
:1039400000C00CF0004C02F0F84B4BEA070B00E013
:10395000C9E14CEA0B0CC3F800C000BF20686A7EC6
:103960002969012A01D1D20700E00022134600F1A3
:10397000600C0CEB8102D2F800C02CF0004C4CEA39
:10398000030CC2F800C000BF20682B7E2969012B00
:1039900001D1DB0200E000231A46036923F4F0435F
:1039A00001F01F0C02FA0CFC43EA0C03036100BF98
:1039B00037E02068006E00F0F8402978B0EB816FA6
:1039C00005D12068006E20F000402168086620685C
:1039D000406E00F0F8402978B0EB816F05D1206887
:1039E000406E20F00040216848662068806E00F03C
:1039F000F8402978B0EB816F05D12068806E20F007
:103A00000040216888662068C06E00F0F840297880
:103A1000B0EB816F05D12068C06E20F000402168B6
:103A2000C866206809F031FA002870D12068EA6879
:103A30002968D0F8C0C0C1F313032CEA030C02F0CC
:103A4000180B6E4B23FA0BF30B404CEA030CC0F837
:103A5000C0C000BF6449E86888427DD12B68C3F3C9
:103A600013031BB92B68C3F3846304E02B6893FA38
:103A7000A3F3B3FA83F35B1C03F01F03092B3ED8B7
:103A80002B68C3F313031BB92B68C3F3846304E0EF
:103A90002B6893FAA3F3B3FA83F35B1C03F01F03C1
:103AA0004FF0010C0CFA03FC2B68C3F313031BB992
:103AB0002B68C3F3846304E02B6893FAA3F3B3FA8F
:103AC00083F35B1C03F01F034CEA836C2B68C3F386
:103AD00013031BB92B68C3F3846304E02B6893FAC8
:103AE000A3F3B3FA83F35B1C03F01F0303EB43035D
:103AF0004FF0000B4BEA03534CEA030341E02B6801
:103B0000C3F3130323B92B68C3F3846305E0A8E070
:103B10002B6893FAA3F3B3FA83F35B1C03F01F0340
:103B20004FF0010C0CFA03FC2B68C3F313031BB911
:103B30002B68C3F3846304E02B6893FAA3F3B3FA0E
:103B400083F35B1C03F01F034CEA836C2B68C3F305
:103B500013032BB92B6800E018E0C3F3846304E07F
:103B60002B6893FAA3F3B3FA83F35B1C03F01F03F0
:103B70000A3B03EB43034FF0007B4BEA03534CEA51
:103B800003031946AA68206809F0AAF9286800F01A
:103B90000040002865D0154A2168914203D0144A9C
:103BA0002168914201D1164900E016490846816812
:103BB00001F0E07600BF0D492068884203D00C492F
:103BC0002068884201D10E4800E00E480C49884226
:103BD0001AD1064809F059F98346054809F055F904
:103BE0004BEA000013E000000000FF470020024005
:103BF00000210240006002580010005CFFFF0F002F
:103C000000230240006302583D4809F03EF9E8BB3A
:103C10003C492868884225D106F4000010BB384989
:103C20002068884265D1384B22689A4203D0374BCE
:103C300022689A4201D1364A00E0364A104646F4DC
:103C4000000109F061F9344800683449B0FBF1F033
:103C50004000009002E00098401E0090009800286C
:103C6000F9D146E02E492868884219D106F08070C3
:103C7000B0B92349206888423BD1234B22689A423D
:103C800003D0224B22689A4203D100E024E0204A6C
:103C900000E0204A104646F0807109F035F928E02E
:103CA00020492868884224D106F4800008BB1449C2
:103CB000206888421DD1144B22689A4203D0134BCE
:103CC00022689A4201D1124A00E0124A104646F494
:103CD000800109F019F90CE0606D40F0200060658A
:103CE0004FF0010A05E0606D40F0200060654FF084
:103CF000010A00BF002084F8500000BF50469DE537
:103D000000600258000084CB0020024000210240E5
:103D10000023024000630258D0000024400D03003D
:103D2000000052C70000B8CF7047704770470000CE
:103D30002DE9F84F04464FF000090020009014B917
:103D40000120BDE8F88FE06818B1207F012800D17C
:103D500000BF606D30B9204600F030F90020A0654A
:103D600084F8500020688168C1F3407131B1206847
:103D70008168874A1140816000BF00BF206809F058
:103D80008EF8A0B920688168824A114041F08051C4
:103D9000816000BF804800688049B0FBF1F000906E
:103DA00002E00098401E009000980028F9D1206899
:103DB00009F075F848B9606D40F010006065A06DBD
:103DC00040F00100A0654FF00109206809F06CF88F
:103DD0000646606D00F0100000287DD1002EFCD159
:103DE000606D20F4807040F002006065206809F08A
:103DF0004CF878BB6A492068884203D0694920683A
:103E0000884201D1684800E068486749884209D182
:103E1000634809F03AF88246624809F036F84AEAFF
:103E2000000002E0624809F030F898B95C4B226863
:103E30009A4203D05B4B22689A4201D15A4A00E071
:103E40005A4A10466168826822F47C120A438260F2
:103E500000BF00BF02F014FF41F2030188420ED9F7
:103E6000A06810280BD1607D216B41EA4030A16829
:103E7000084340F00C01207F41EA004508E0607DE6
:103E8000216B41EA4030A1680843217F40EA0145A7
:103E9000207F012803D1208C401E45EA4045606AFE
:103EA00028B1A08C00F47870A16A0843054320680B
:103EB000C0684049084028432168C860206808F06D
:103EC000F3FF8046206808F0D6FF0746B8F1000FE0
:103ED0003BD1D7BB207D00E051E0E16A41EA80356B
:103EE0002068C06844F20301884328432168C86001
:103EF00094F83800012817D1606A08B1A06A00B9A7
:103F000000BFA08F401E012141EA0041206C084300
:103F1000616C0843A16C084321680969264A114075
:103F200008432168086105E02068006920F001006D
:103F3000216808612068006920F07040616B0843C7
:103F4000216808612046FDF777FAE068012809D169
:103F50002068006B20F00F00A169491E084321680A
:103F6000086305E02068006B20F00F0021680863FB
:103F7000606D20F0020040F00100606505E0606DBA
:103F800040F0100060654FF001094846D9E6000096
:103F9000C0FFFF5FC0FFFF7FD0000024400D030083
:103FA000002002400021024000230240006302582A
:103FB0000060025803C0F0FF1EF800FC10B5B6B058
:103FC0000446142131A8FCF754FABC2102A8FCF7DE
:103FD00050FA56492068884250D14FF40020029090
:103FE00080102A9002A804F0C1F808B1FFF7ECF99C
:103FF00000BF4F48006840F020004D490860084667
:10400000006800F02000019000BF00BF00BF4848DA
:104010000830006840F00200454908310860084651
:10402000006800F00200019000BF00BF0220319044
:10403000032032900020339031A93E4802F00EFD5B
:104040003D483E4908600920486000213B488160A6
:10405000C1604FF480610161490041618900816163
:104060000021C1610162416201F01EFB08B1FFF74E
:10407000ABF900BF3148E064846354E03049206804
:10408000884250D14FF40020029080102A9002A85C
:1040900004F06CF808B1FFF797F900BF2448083026
:1040A000006840F0807022490831086008460068C6
:1040B00000F08070019000BF00BF00BF084600689C
:1040C00040F0200008600846006800F020000190E1
:1040D00000BF00BF082031900320329000203390B1
:1040E00031A9184802F0BAFC134818301649086084
:1040F00073204860002114488160C1604FF48061E2
:10410000016149004161890081610021C161016251
:10411000416201F0C9FA08B1FFF756F900BF0A4839
:10412000E064846300BF36B010BD00000020024090
:10413000D8440258000402587000024014130024AE
:104140000060025800140258F01300242DE9F041D9
:1041500004460F4690463F4A2168914203D03E4AAA
:104160002168914201D13D4900E03D49084608F0EF
:104170007DFE0646206808F097FE002866D100BF45
:1041800094F85000012802D10220BDE8F0810120FE
:1041900084F8500000BF1EB1052E01D0092E4FD16A
:1041A0002046FDF7A1FA0546002D44D1606D40F68A
:1041B0000161884340F48070606527492068884227
:1041C00001D1244800E020682168884200D01EB94F
:1041D000606D20F480106065606D00F4805020B147
:1041E000A06D20F00600A06501E00020A0651D483C
:1041F000E16CC8631C48E16C08641C48E16CC8644D
:104200001C202168086000BF002084F8500000BF17
:104210002068406840F0100021684860226802F180
:10422000400143463A46E06C01F0FCFB054620683D
:1042300008F04EFE0BE000BF002084F8500006E0BE
:10424000012500BF002084F8500000E00225284628
:104250009BE70000002002400021024000230240B2
:1042600000630258A11508085116080833160808FB
:1042700030B5024600230024087A012855D1444D68
:104280001068A84249D0424D18351068A84244D061
:104290003F4D30351068A8423FD03D4D483510683D
:1042A000A8423AD03A4D60351068A84235D0384D12
:1042B00078351068A84230D0354D90351068A84246
:1042C0002BD0334DA8351068A84226D0314D106848
:1042D000A84222D02F4D18351068A8421DD02D4D70
:1042E00030351068A84218D02A4D48351068A842C9
:1042F00013D0284D60351068A8420ED0254D783572
:104300001068A84209D0234D90351068A84204D007
:10431000204DA8351068A84201D1012000E00020FE
:1043200000B100E000BF0B684C6892F8350001282E
:1043300028D100BF92F83400012801D1022030BDFD
:10434000012082F8340000BF106E006820F4813034
:10435000156E28601D068889401E45EAC04020432E
:104360000D7A40EA05404D7A40EA4520156E2D68E9
:10437000EDB22843156E286000BF002082F834009B
:1043800000BFDCE74FF4006050650120D7E7000074
:1043900010000240100402402DE9F041044602F0F2
:1043A00075FC804614B90120BDE8F08194F8350011
:1043B000022808D08020606500BF002084F8340007
:1043C00000BF0120F0E7AD492068884249D0AB49E1
:1043D00018312068884244D0A8493031206888428A
:1043E0003FD0A6494831206888423AD0A34960317D
:1043F0002068884235D0A14978312068884230D081
:104400009E499031206888422BD09C49A831206871
:10441000884226D09A492068884222D0984918318B
:10442000206888421DD0964930312068884218D0D3
:10443000934948312068884213D0914960312068FF
:1044400088420ED08E4978312068884209D08C4944
:1044500090312068884204D08949A8312068884278
:1044600001D1012000E0002068B12068006820F040
:104470001E00216808602068406920F080002168E3
:104480004861256806E02068006820F00E00216879
:1044900008602568206E006820F48070216E086036
:1044A00076492068884249D074491831206888428A
:1044B00044D072493031206888423FD06F4948313A
:1044C000206888423AD06D4960312068884235D0F2
:1044D0006A4978312068884230D068499031206834
:1044E00088422BD06549A8312068884226D064498B
:1044F0002068884222D062491831206888421DD045
:104500005F4930312068884218D05D4948312068C1
:10451000884213D05A496031206888420ED05849E9
:1045200078312068884209D0554990312068884206
:1045300004D05349A8312068884206D12068006819
:1045400020F001002168086005E02068006820F084
:1045500001002168086011E002F098FBA0EB080060
:1045600005280BD92020606500BF002084F83400A6
:1045700000BF032084F83500012015E7286800F00B
:1045800001000028E8D13D492068884249D03B49D4
:1045900018312068884244D0384930312068884238
:1045A0003FD036494831206888423AD0334960319B
:1045B0002068884235D0314978312068884230D02F
:1045C0002E499031206888422BD02C49A831206890
:1045D000884226D02A492068884222D028491831AA
:1045E000206888421DD0264930312068884218D082
:1045F000234948312068884213D02149603120681E
:1046000088420ED01E4978312068884209D01C4962
:1046100090312068884204D01949A8312068884226
:1046200001D1012000E0002040B1A76D94F85C00AA
:1046300000F01F013F208840B86007E0A66D94F8A5
:104640005C0000F01F01012088407060D4E919105F
:104650004860E06E40B1E06E006820F48070E16E6A
:104660000860D4E91C10486000BF002084F83400C2
:1046700000BF012084F83500002095E610000240BC
:104680001004024070B504460CB9012070BD94F8C6
:104690003500022803D0802060650120F6E79F499D
:1046A0002068884249D09D4918312068884244D00A
:1046B0009A493031206888423FD098494831206873
:1046C00088423AD0954960312068884235D0934974
:1046D00078312068884230D09049903120688842F3
:1046E0002BD08E49A8312068884226D08C4920687A
:1046F000884222D08A491831206888421DD08849D2
:1047000030312068884218D0854948312068884275
:1047100013D083496031206888420ED080497831B7
:104720002068884209D07E4990312068884204D0B0
:104730007B49A8312068884201D1012000E0002097
:10474000F0B3042084F835007449206888424BD0C7
:10475000724918312068884246D07049303120684B
:10476000884241D06D494831206888423CD06B492D
:1047700060312068884237D06849783120688842A3
:1047800032D066499031206888422DD06349A831E3
:104790002068884228D062492068884224D0604935
:1047A0001831206888421FD05D4930312068884226
:1047B0001AD05B4948312068884215D0584900E03A
:1047C00020E06031206888420ED055497831206859
:1047D000884209D0524990312068884204D050491B
:1047E000A8312068884206D12068006820F00100C6
:1047F0002168086090E02068006820F001002168CE
:10480000086089E02068006820F00E0021680860D8
:1048100042492068884249D040491831206888427E
:1048200044D03E493031206888423FD03B4948312E
:10483000206888423AD0394960312068884235D0B2
:10484000364978312068884230D034499031206828
:1048500088422BD03149A8312068884226D030497F
:104860002068884222D02E491831206888421DD005
:104870002B4930312068884218D0294948312068B6
:10488000884213D026496031206888420ED02449DE
:1048900078312068884209D02149903120688842C7
:1048A00004D01F49A8312068884206D120680068DA
:1048B00020F001002168086005E02068006820F011
:1048C000010021680860206E006820F48070216E6D
:1048D0000860A56D94F85C0000F01F01012088407D
:1048E0006860D4E919104860E06E40B1E06E00687D
:1048F00020F48070E16E0860D4E91C10486000BFAD
:10490000002084F8340000BF012084F83500206DB9
:1049100010B12046216D88470020B7E61000024004
:104920001004024070B504460CB9012070BD9B49CB
:104930002068884249D0994918312068884244D07B
:1049400096493031206888423FD0944948312068E8
:1049500088423AD0914960312068884235D08F49E9
:1049600078312068884230D08C4990312068884264
:104970002BD08A49A8312068884226D088492068EF
:10498000884222D086491831206888421DD0844947
:1049900030312068884218D08149483120688842E7
:1049A00013D07F496031206888420ED07C4978312D
:1049B0002068884209D07A4990312068884204D022
:1049C0007749A8312068884206D12068006820F025
:1049D00001002168086005E02068006820F00100FF
:1049E000216808606D492068884249D06B491831B8
:1049F0002068884244D069493031206888423FD0DD
:104A000066494831206888423AD06449603120685C
:104A1000884235D0614978312068884230D05F497A
:104A20009031206888422BD05C49A83120688842A8
:104A300026D05B492068884222D059491831206825
:104A400088421DD0564930312068884218D05449D8
:104A500048312068884213D051496031206888422B
:104A60000ED04F4978312068884209D04C499031A6
:104A70002068884204D04A49A8312068884201D180
:104A8000012000E00020C8B10020216808602168F2
:104A90004860216888602168C86021680861212019
:104AA000216848612046FDF759FB064694F85C00F2
:104AB00000F01F013F208840B06043E03949206882
:104AC000884222D037491431206888421DD03549A8
:104AD00028312068884218D032493C312068884209
:104AE00013D030495031206888420ED02D496431AE
:104AF0002068884209D02B4978312068884204D048
:104B000028498C312068884201D1012000E0002032
:104B1000B0B1002021680860216848602168886081
:104B20002168C860216808612046FDF717FB05462B
:104B300094F85C0000F01F0101208840686001E0EB
:104B40000120F3E62046FDF77FFB206E28B1002010
:104B5000216E0860D4E919104860606858B1606837
:104B6000082808D82046FDF7D1FB0020E16E086038
:104B7000D4E91C1048600020E06620676067E063AD
:104B800020646064A064E0642065606584F835009A
:104B900000BF84F8340000BF00BFC7E61000024029
:104BA00010040240085402580146486D7047000046
:104BB0002DE9F84F044600200090FE4800684FF4AD
:104BC0001651B0FBF1FAA66DD4F858803768D8F8C2
:104BD0000090F9492068884249D0F7491831206887
:104BE000884244D0F4493031206888423FD0F249AD
:104BF0004831206888423AD0EF49603120688842C5
:104C000035D0ED4978312068884230D0EA4990317A
:104C1000206888422BD0E849A8312068884226D0F5
:104C2000E6492068884222D0E44918312068884249
:104C30001DD0E24930312068884218D0DF49483120
:104C40002068884213D0DD496031206888420ED048
:104C5000DA4978312068884209D0D84990312068F3
:104C6000884204D0D549A8312068884201D101206A
:104C700000E0002000287DD094F85C0000F01F01C7
:104C8000082088403840002868D0CB4920688842F6
:104C900049D0C94918312068884244D0C6493031CA
:104CA000206888423FD0C4494831206888423AD0C1
:104CB000C14960312068884235D0BF4978312068C9
:104CC000884230D0BC499031206888422BD0BA4904
:104CD000A8312068884226D0B8492068884222D06E
:104CE000B6491831206888421DD0B4493031206857
:104CF000884218D0B14948312068884213D0AF4962
:104D00006031206888420ED0AC49783120688842F2
:104D100009D0AA4990312068884204D0A749A83117
:104D20002068884204D12068006800F0040003E095
:104D30002068006800F0080080B12068006820F05A
:104D400004002168086094F85C0000F01F0108204E
:104D50008840B060606D40F00100606594F85C00D0
:104D600000F01F01012088403840E8B392492068D4
:104D7000884200E0B8E24BD08F4918312068884261
:104D800046D08D4930312068884241D08A49483127
:104D9000206888423CD0884960312068884237D0FA
:104DA000854978312068884232D083499031206823
:104DB00088422DD08049A8312068884228D07F4978
:104DC0002068884224D07D491831206888421FD04D
:104DD0007A493031206888421AD0784948312068B1
:104DE000884215D0754900E026E06031206888428D
:104DF0000ED0724978312068884209D06F499031CD
:104E00002068884204D06D49A8312068884204D1C6
:104E10002068406900F0800002E0206800680020FF
:104E200050B194F85C0000F01F0101208840B06090
:104E3000606D40F00200606594F85C0000F01F01B6
:104E4000042088403840E8B35B49206888424BD052
:104E5000594918312068884246D057493031206876
:104E6000884241D054494831206888423CD0524958
:104E700060312068884237D04F49783120688842B5
:104E800032D04D499031206888422DD04A49A8310E
:104E90002068884228D049492068884224D0474960
:104EA0001831206888421FD0444930312068884238
:104EB0001AD0424948312068884215D03F496031B4
:104EC000206800E024E088420ED03C497831206818
:104ED000884209D0394990312068884204D0374946
:104EE000A8312068884204D12068006800F00200E0
:104EF00002E020680068002050B194F85C0000F0E7
:104F00001F0104208840B060606D40F004006065BF
:104F100094F85C0000F01F01102088403840E8B38E
:104F200025492068884251D0234918312068884299
:104F30004CD0214930312068884247D01E49483141
:104F40002068884242D01C496031206888423DD0A8
:104F5000194978312068884238D017499031206843
:104F6000884233D01449A831206888422ED0134992
:104F7000206888422AD0114918312068884225D0FB
:104F80000E4930312068884220D00C4948312068D1
:104F900088421BD009496031206800E04DE088421A
:104FA00014D006497831206888420FD003499031E7
:104FB000206805E0D00000241000024010040240E8
:104FC000884203D0FE492068884204D120680068E6
:104FD00000F0080003E02068006800F0040060B3FF
:104FE00094F85C0000F01F0110208840B060206839
:104FF000006800F4802080B12068006800F4002080
:1050000028B9206CC8B12046216C884715E0A06CF7
:1050100098B12046A16C88470FE02068006800F432
:10502000807028B92068006820F0080021680860B6
:10503000206C10B12046216C884794F85C0000F089
:105040001F0120208840384000287DD0DD4920689D
:10505000884249D0DB4918312068884244D0D94978
:105060003031206888423FD0D64948312068884294
:105070003AD0D44960312068884235D0D14978315E
:105080002068884230D0CF499031206888422BD0A8
:10509000CC49A8312068884226D0C949A83920685F
:1050A000884221D0C6499039206888421CD0C44922
:1050B00078392068884217D0C14960392068884211
:1050C00012D0BF494839206888420DD0BC493039D8
:1050D0002068884208D0BA4918392068884203D02D
:1050E000B7492068884204D12068006800F01000A9
:1050F00003E02068006800F0020028B394F85C0028
:1051000000F01F0120208840B06094F8350004288A
:105110002DD12068006820F0160021680860206802
:10512000406920F0800021684861206C08B9A06CBB
:1051300028B12068006820F008002168086094F811
:105140005C0000F01F0100E03FE03F208840B060BD
:1051500000BF002084F8340000BF012084F835002F
:10516000206D10B12046216D8847BDE8F88F20687A
:10517000006800F4802080B12068006800F40020FE
:1051800028B9606C08B32046616C88471DE0E06B6D
:10519000D8B12046E16B884717E02068006800F42A
:1051A000807068B92068006820F0100021680860ED
:1051B00000BF002084F8340000BF012084F83500CF
:1051C000E06B10B12046E16B8847606D00287DD010
:1051D000606D00F00100E8B3042084F835007949DF
:1051E000206888424BD0774918312068884246D0E1
:1051F000744930312068884241D072494831206872
:1052000088423CD06F4960312068884237D06D4970
:1052100078312068884232D06A49903120688842CB
:105220002DD06849A8312068884228D06449A8391F
:105230002068884223D062499039206888421ED075
:105240005F4978392068884219D05D496039206803
:10525000884200E041E012D059494839206888422C
:105260000DD0574930392068884208D05449183940
:105270002068884203D052492068884206D12068BD
:10528000006820F001002168086005E020680068DF
:1052900020F001002168086000BF0098401C0090C9
:1052A000504500D905E02068006800F001000028A2
:1052B000F3D100BF00BF002084F8340000BF206895
:1052C000006800F0010028B1032000E00BE084F842
:1052D000350002E0012084F83500E06C002802D09F
:1052E0002046E16C8847D9E137492068884222D0BE
:1052F00035491431206888421DD03349283120684F
:10530000884218D030493C312068884213D02E4959
:105310005031206888420ED02B4964312068884281
:1053200009D0294978312068884204D026498C3137
:105330002068884201D1012000E000200028D2D05E
:105340002068056894F85C0000F01F010420884084
:1053500000EA0900D0B305F00400B8B394F85C008B
:1053600000F01F0104208840C8F8040005F4004044
:1053700080B105F4803030B9A06C0028B3D020464D
:10538000A16C88478AE1206C0028ACD02046216CB3
:10539000884783E105F02000F0BB0A492068884275
:1053A00052D008491831206888424DD00549303123
:1053B0002068884248D0034948312068884206E086
:1053C000B804024010000240085402584FE03BD09D
:1053D000B3492068884237D0B149183120688842E3
:1053E00032D0AF493031206888422DD0AC494831A5
:1053F0002068884228D0AB492068884224D0A94937
:105400001831206888421FD0A64930312068884270
:105410001AD0A449483100E023E02068884213D024
:10542000A0496031206888420ED09E4978312068BA
:10543000884209D09B4990312068884204D099491C
:10544000A8312068884206D12068006820F0080052
:105450002168086005E02068006820F004002168E9
:105460000860206C10B32046216C884716E194F840
:105470005C0000F01F010220884000EA0900E8B348
:1054800005F00200D0B394F85C0000F01F01022088
:105490008840C8F8040005F4004070B105F480307D
:1054A00028B9606C10B12046616C8847F6E0E06B6B
:1054B000F0B32046E16B8847F0E005F02000C0BB68
:1054C00077496039206888424DD07549483920684D
:1054D000884248D0724930392068884243D07049A8
:1054E0001839206888423ED06D49206888423AD0F9
:1054F0006B4918312068884235D000E04EE0684999
:105500003031206888422ED0654948312068884271
:1055100029D064492068884225D062491831206822
:10552000884220D05F493031206888421BD001E09A
:105530006EE02DE05B4948312068884213D059491C
:105540006031206888420ED0564978312068884200
:1055500009D0544990312068884204D05149A8317B
:105560002068884206D12068006820F01400216875
:10557000086005E02068006820F00A0021680860E3
:1055800000BF002084F8340000BF012084F83500FB
:10559000E06BE8B32046E16B88477FE094F85C005D
:1055A00000F01F010820884000EA090080B305F0E0
:1055B000080068B33A496039206888424AD03849BF
:1055C00048392068884245D03549303920688842BA
:1055D00040D033491839206888423BD03049206890
:1055E000884237D02E4918312068884232D02C4961
:1055F0003031206888422DD02949483120688842BE
:1056000028D028492068884224D02649183100E053
:1056100044E0206888421DD0224930312068884209
:1056200018D0204948312068884213D01D49603184
:10563000206888420ED01B4978312068884209D002
:10564000184990312068884204D01649A831206852
:10565000884206D12068006820F01C00216808609C
:1056600005E02068006820F00E002168086094F8CA
:105670005C0000F01F0101208840C8F804000120F0
:10568000606500BF002084F8340000BF012084F86A
:105690003500E06C10B12046E16C884700BF64E53E
:1056A00070000240100402402DE9F041044601F070
:1056B000EDFA804614B90120BDE8F081D449206894
:1056C000884249D0D24918312068884244D0D04914
:1056D0003031206888423FD0CD4948312068884227
:1056E0003AD0CB4960312068884235D0C8497831FA
:1056F0002068884230D0C6499031206888422BD03B
:10570000C349A8312068884226D0C249206888420F
:1057100022D0C0491831206888421DD0BD4930319F
:105720002068884218D0BB4948312068884213D08D
:10573000B8496031206888420ED0B6497831206877
:10574000884209D0B34990312068884204D0B149D9
:10575000A8312068884201D1012000E00020002803
:1057600073D0606A00B100BF00BF002084F834002D
:1057700000BF022084F83500A5492068884249D03E
:10578000A34918312068884244D0A14930312068AB
:1057900088423FD09E494831206888423AD09C498F
:1057A00060312068884235D0994978312068884234
:1057B00030D097499031206888422BD09449A83145
:1057C0002068884226D093492068884222D0914997
:1057D0001831206888421DD08E49303120688842B7
:1057E00018D08C4948312068884213D089496031EB
:1057F000206888420ED0874978312068884209D0D5
:10580000844990312068884204D08249A8312068B8
:10581000884206D12068006820F0010021680860F5
:1058200005E02068006820F00100216808600DE0B4
:1058300001F02CFAA0EB0800052807D920206065AC
:10584000032084F83500012036E745E02068006831
:1058500000F001000028EBD1206805686E48054083
:10586000D4E9020108432169084361690843A16939
:105870000843E1690843216A08430543606A042834
:1058800003D1D4E90B010843054320680560206873
:10589000456925F00705606A0543606A04280DD153
:1058A000A06A0543E06A48B12046FCF77BFD28B1B9
:1058B00040206065012084F83500FDE620684561E0
:1058C0002046FCF74BFC064694F85C0000F01F01F4
:1058D0003F208840B06073E050492068884222D061
:1058E0004E491431206888421DD04C492831206827
:1058F000884218D049493C312068884213D0474932
:105900005031206888420ED0444964312068884272
:1059100009D0424978312068884204D03F498C310F
:105920002068884201D1012000E00020F0B300BFD0
:10593000002084F8340000BF022084F8350020687D
:10594000056837480540A068402801D1102105E0CE
:10595000A068802801D1C10100E00021E06841EA8F
:10596000D001206941EAD001606941EAD001A06913
:1059700041EAD001E06941EAD001206A41EA101011
:1059800005432068056025492068401A1421B0FBB2
:10599000F1F08000E0652046FCF7E0FB074694F854
:1059A0005C0000F01F010120884000E001E0786009
:1059B00006E040206065032084F8350001207BE686
:1059C0002046FCF741FCA068802801D100206060DF
:1059D0002079216E0860D4E919104860606860B1D0
:1059E0006068082809D82046FCF790FC0020E16E8A
:1059F0000860D4E91C10486003E00020E0662067DE
:105A0000606700206065012084F83500002053E6BF
:105A100010000240100402403F8010FE085402585B
:105A20000F00FEFF2DE9F04104460D4616461F46C5
:105A30004FF0000814B90120BDE8F08100BF94F8D0
:105A40003400012801D10220F6E7012084F8340057
:105A500000BF94F8350001287ED1022084F835007B
:105A600000206065A8492068884249D0A6491831BD
:105A70002068884244D0A4493031206888423FD011
:105A8000A1494831206888423AD09F496031206856
:105A9000884235D09C4978312068884230D09A4974
:105AA0009031206888422BD09749A83120688842DD
:105AB00026D096492068884222D09449183120681F
:105AC00088421DD0914930312068884218D08F49D2
:105AD00048312068884213D08C4960312068884260
